:0C0000000C943C000C9400000C940000D8
:10000C000C9400000C9400000C9400000C94000064
:10001C000C9400000C9400000C9400000C94000054
:10002C000C9469000C9400000C9400000C940000DB
:10003C000C9400000C9400000C9400000C94000034
:10004C000C9400000C9400001027E80364000A00D4
:10005C0001000010000110000100000080C0010030
:10006C00020066000200600168000000F894EE27B0
:10007C00ECBBF1E0FBBFEBBFE5BF8DE0A2E0BB2723
:10008C00ED938A95E9F780E094E0A0E6ED93019773
:10009C00E9F7EAE6F0E085919591009761F0A5917A
:1000AC00B59105901590BF01F00105900D92019747
:1000BC00E1F7FB01F0CFEFE5EDBFE4E0EEBFC0E60A
:1000CC00D1E00C9489000A921A92FA926A937A936C
:1000DC008A939A93AA93BA93EA93FA93EFB7EA9313
:1000EC000E9442015E2E689420F8E991EFBFF991CD
:1000FC00E991B991A9919991899179916991F99025
:10010C00199009901895E0E0EABBEBBBE7BBE8BBA4
:10011C00E4BBE5BBE1BBE2BBE3BFE2BFECBFEFBDC1
:10012C00EEBDEDBDECBDE7BDE6BDEBBDEABDE9BD89
:10013C00E8BDE2BDE5BDE4BDE3BDE9BFE5BFE4BF9D
:10014C00EFEFE4BBE0E0EBB9E0E9EAB9E6E8E0BDEB
:10015C00E0E0E0BDE3E3E9B9E0E8E8B9E0E0E0BF06
:10016C00E6B9EDB9E6BFE5BFEFEFE4BF7894A0E1E7
:10017C0055D020FE04C0A52D3DD0E89420F8F9CF31
:10018C00FFCFAA93E5B3EF70AE2FE881E07FEA2BA7
:10019C00E5BB8DE08A95F1F7AA9A8DE08A95F1F787
:1001AC00AA988DE08A95F1F765C0AA93A881E9DF3A
:1001BC00E881E295E883A881E4DF85E88A95F1F788
:1001CC0059C0AA93E881F0E0E05AFE4FE081A98182
:1001DC00AE0FEBDF4980788022960895A2E00E9452
:1001EC004601ACE0E2DFA1E00E944601E0E07E2E99
:1001FC004E2E0895AA93A881AA3011F0461440F00F
:10020C00E0E0EA937394A72DDCDFA881AA3091F18A
:10021C004394A89AA881C9DFA8982CC0AA93E4B3E8
:10022C00E06FE4BBA29AA09AA19AAA98A898A99860
:10023C006880E881E058E0936201E881E054E09343
:10024C006301A4E1B0E00E9454010E944C010E94A1
:10025C004C010E944C01A0E294DF88EC90E00197E5
:10026C00F1F7A8E2A2DFA4E0A0DFA5E89EDFA6E0FC
:10027C009CDFB4DF219608955F9BFECFECB108950F
:10028C000E94DB00A3E0B0E00C945401A0E30E94B8
:10029C00C70088EC90E00197F1F70895109639F0BB
:1002AC00A89580ED97E00197F1F71197C9F708959C
:00000001FF
